GL000469A5062953000119-09-201619-09-2016NM012896         0000002050000000000     Akshay  Mallya                MR                            MR MMRIND19-07-1991                                                                      Banaglore           56000100000000000001
GL000469A5062953000126-09-201626-09-2016NM012919         0000004862540000000     Suraj Yakub Mujawar           MR                            MR MMRIND24-09-1990                                                                      Banaglore           56000100000000000001
GL000469A5062953000130-09-201630-09-2016NM012926         0000031990650000000     Shashidhara  Belavadi NagarajsMR                            MR MMRIND02-01-1974                                                                      Banaglore           56000100000000000001
