GL000469T        00026-09-201626-09-2016NM11118          0000000000000000000  T2 Srigiri Kuchibhatla           
GL000469T        00027-09-201627-09-2016NM11505          0000000000000000000  T2 Gokul A N                     
GL000469T        00028-09-201628-09-2016NM7059           0000000000000000000  T2 Rajendran Venkatasubbu        
