GL000460C5062934600101-04-201601-04-2016NM32668          0000000000000000000     Jaydeep K Ponda               
GL000460C5062934600101-04-201601-04-2016NM32669          0000000000000000000     AshutoshBarche                
GL000460C5062934600101-04-201601-04-2016NM32670          0000000000000000000     Sukumar Ojha                  
GL000460C5062934600101-04-201601-04-2016NM32671          0000000000000000000     Ganapati Kasbekar             
