GL000468C5062952800116-04-201616-04-2016NM1157           0000020000000000000     Akshata Mulay                 
GL000468C5062952800116-04-201616-04-2016NM1160           0000020000000000000     Tavleen Kaur Bindra           
GL000468C5062952800116-04-201616-04-2016NM1161           0000020000000000000     Kishor Gosavi                 
