GL000468A5062952900116-09-201616-09-2016NM1172           0000010000000000000     Vagish Tripathi               MR                            MR MMRIND02-08-1992                                                                      Mumbai              40000100000000000001
GL000468A5062952800116-09-201616-09-2016NM1173           0000010000000000000     Monali Dighavkar              MS                            MS FMRIND02-08-1992                                                                      Mumbai              40000100000000000001
GL000468A5062952800116-09-201616-09-2016NM1174           0000010000000000000     Nitish Deshpande              MR                            MR MMRIND30-06-1991                                                                      Mumbai              40000100000000000001
GL000468A5062952800116-09-201616-09-2016NM1175           0000010000000000000     Akshata Mulay                 MS                            MS FMRIND01-01-1993                                                                      Mumbai              40000100000000000001
