GL000469T        00016-12-201516-12-2015NM4862           0000000000000000000  T2 Praveen Parupudi  Venkata Kris
GL000469T        00018-12-201618-12-2016NM6377           0000000000000000000  T2 Anil Kumar S                  
GL000469T        00021-12-201621-12-2016NM6226           0000000000000000000  T2 Roshan PV                     
GL000469T        00028-12-201628-12-2016NM6078           0000000000000000000  T2 G. Sandhya Reddy              
GL000469T        00028-12-201628-12-2016NM5539           0000000000000000000  T2 Dhanashri Laxmikant Ambarkhane
GL000469T        00031-12-201631-12-2016NM11722          0000000000000000000  T2 Mayur  Suresh Shah            
GL000469T        00031-12-201631-12-2016NM12412          0000000000000000000  T2 Abhijit Sinha                 
GL000469T        00031-12-201631-12-2016NM6298           0000000000000000000  T2 Ravinder Singh Vaswan         
GL000469T        00031-12-201631-12-2016NM6109           0000000000000000000  T2 Unnikrishnan G                
GL000469T        00031-12-201631-12-2016NM12372          0000000000000000000  T2 Rahul Shukla                  
GL000469T        00031-12-201631-12-2016NM5776           0000000000000000000  T2 Abhijit Vilas Redkar          
GL000469T        00031-12-201631-12-2016NM6825           0000000000000000000  T2 Pradeep Sheokand              
GL000469T        00025-03-201625-03-2016NM012937         0000000000000000000  T2 Manjula Kandula               
GL000469T        00026-03-201626-03-2016NM006004         0000000000000000000  T2 Molla Shaik Arif Siddik       
GL000469T        00027-03-201627-03-2016NM006346         0000000000000000000  T2 Gautam Maheshwari             
GL000469T        00027-03-201627-03-2016NM006957         0000000000000000000  T2 Purva Sudhir Narvilkar        
GL000469T        00004-03-201604-03-2016NM002922         0000000000000000000  T2 Balaji Kannan                 
GL000469T        00029-03-201629-03-2016NM011559         0000000000000000000  T2 Ved Garbha                    
GL000469T        00003-09-201603-09-2016NM4261           0000000000000000000  T2 Tanima Saini                  
GL000469T        00004-09-201604-09-2016NM12371          0000000000000000000  T2 John Stephen                  
GL000469T        00005-09-201605-09-2016NM11628          0000000000000000000  T2 Raja Shekar Reddy Chavva      
GL000469T        00018-09-201618-09-2016NM2673           0000000000000000000  T2 Satwik Vasuki                 
GL000469T        00019-09-201619-09-2016NM5411           0000000000000000000  T2 Sundeep Kumar                 
GL000469T        00026-09-201626-09-2016NM11118          0000000000000000000  T2 Srigiri Kuchibhatla           
GL000469T        00027-09-201627-09-2016NM11505          0000000000000000000  T2 Gokul A N                     
GL000469T        00028-09-201628-09-2016NM7059           0000000000000000000  T2 Rajendran Venkatasubbu        
