GL000460A5062934500105-12-201505-12-2015NM129843331      0000012213360000000     Anshuman Rahul                MR                            MR MMRIND18-05-1984                                                                      Karnataka           56000100000000000001
GL000460A5062934600112-12-201612-12-2016NM1313333051     0000013137080000000     Anay Ghotikar                 MR                            MR MMRIND13-03-1985                                                                      Karnataka           56000100000000000001
GL000460A5062934500112-12-201612-12-2016NM1333330871     0000008173000000000     Nandita Ghosh                 MS                            MS FMRIND03-11-1989                                                                      Karnataka           56000100000000000001
