GL000551A5999999900120-02-201720-02-2017NM10381920       0000020000000000000     Sameer Sonawane               MR                            MR MMRIND22-07-1988                                                                      Hyderabad           50003100000000000001
GL000551A5999999900127-02-201727-02-2017NM10382216       0000020000000000000     Abhijeet Tekale               MR                            MR MMRIND22-03-1987                                                                      Hyderabad           50003100000000000001
GL000551A5999999900216-02-201716-02-2017NM10388464       0000010000000000000     Viraj Kochure                 MR                            MR MMRIND19-05-1994                                                                      Hyderabad           50003100000000000001
GL000551A5999999900116-02-201716-02-2017NM10388484       0000020000000000000     Aditi Sonone                  MS                            MS FMRIND10-06-1991                                                                      Hyderabad           50003100000000000001
GL000551A5999999900120-02-201720-02-2017NM10388667       0000020000000000000     Suwarna Sapre                 MS                            MS FMRIND30-06-1991                                                                      Hyderabad           50003100000000000001
GL000551A5999999900223-02-201723-02-2017NM10389585       0000010000000000000     Raveena Pardeshi              MS                            MS FMRIND29-06-1993                                                                      Hyderabad           50003100000000000001
GL000551A5999999900216-02-201716-02-2017NM10389592       0000010000000000000     Tanul Tripathi                MS                            MS FMRIND30-10-1993                                                                      Hyderabad           50003100000000000001
GL000551A5999999900220-02-201720-02-2017NM10389987       0000010000000000000     Alex Purathoor                MR                            MR MMRIND07-11-1994                                                                      Hyderabad           50003100000000000001
GL000551A5999999900220-02-201720-02-2017NM10389992       0000010000000000000     Soumya S                      MR                            MR MMRIND10-06-1988                                                                      Hyderabad           50003100000000000001
GL000551A5999999900220-02-201720-02-2017NM10390022       0000010000000000000     Bryan Cadd                    MR                            MR MMRIND17-07-1992                                                                      Hyderabad           50003100000000000001
GL000551A5999999900220-02-201720-02-2017NM10390023       0000010000000000000     Ankit Jhunjhunwala            MR                            MR MMRIND04-12-1978                                                                      Hyderabad           50003100000000000001
GL000551A5999999900220-02-201720-02-2017NM10390025       0000010000000000000     Priya Salvi                   MS                            MS FMRIND03-07-1991                                                                      Hyderabad           50003100000000000001
GL000551A5999999900220-02-201720-02-2017NM10390027       0000010000000000000     Niraj Yadav                   MS                            MS FMRIND15-11-1988                                                                      Hyderabad           50003100000000000001
GL000551A5999999900220-02-201720-02-2017NM10390029       0000010000000000000     Sneha Paanchal                MS                            MS FMRIND27-03-1987                                                                      Hyderabad           50003100000000000001
GL000551A5999999900220-02-201720-02-2017NM10390031       0000010000000000000     Mustafa M                     MR                            MR MMRIND09-12-1966                                                                      Hyderabad           50003100000000000001
GL000551A5999999900223-02-201723-02-2017NM10390036       0000010000000000000     Aishwarya Halwai              MS                            MS FMRIND13-03-1994                                                                      Hyderabad           50003100000000000001
GL000551A5999999900220-02-201720-02-2017NM10390204       0000010000000000000     Sushant Agarwal               MR                            MR MMRIND03-04-1995                                                                      Hyderabad           50003100000000000001
GL000551A5999999900220-02-201720-02-2017NM10390207       0000010000000000000     Palak Sankhere                MS                            MS FMRIND22-10-1994                                                                      Hyderabad           50003100000000000001
GL000551A5999999900220-02-201720-02-2017NM10390210       0000010000000000000     Suraj Bhoite                  MR                            MR MMRIND18-04-1992                                                                      Hyderabad           50003100000000000001
GL000551A5999999900220-02-201720-02-2017NM10390215       0000010000000000000     Sumail C                      MR                            MR MMRIND19-02-1989                                                                      Hyderabad           50003100000000000001
GL000551A5999999900220-02-201720-02-2017NM10390234       0000010000000000000     Sayli Deore                   MS                            MS FMRIND21-09-1992                                                                      Hyderabad           50003100000000000001
GL000551A5999999900222-02-201722-02-2017NM10390777       0000010000000000000     Vikas Shepal                  MR                            MR MMRIND11-01-1974                                                                      Hyderabad           50003100000000000001
GL000551A5999999900223-02-201723-02-2017NM10390807       0000010000000000000     Manisha Gaikwad               MS                            MS FMRIND21-03-1986                                                                      Hyderabad           50003100000000000001
GL000551A5999999900223-02-201723-02-2017NM10390812       0000010000000000000     Ajay Dalaya                   MR                            MR MMRIND09-10-1987                                                                      Hyderabad           50003100000000000001
GL000551A5999999900223-02-201723-02-2017NM10390854       0000010000000000000     Prasad Masunkar               MR                            MR MMRIND29-10-1994                                                                      Hyderabad           50003100000000000001
GL000551A5999999900223-02-201723-02-2017NM10390859       0000010000000000000     Swapnil Kamble                MR                            MR MMRIND04-01-1992                                                                      Hyderabad           50003100000000000001
GL000551A5999999900223-02-201723-02-2017NM10390861       0000010000000000000     Kevin Salins                  MR                            MR MMRIND27-09-1989                                                                      Hyderabad           50003100000000000001
GL000551A5999999900223-02-201723-02-2017NM10390864       0000010000000000000     Sheikh Aaqib Fayaz            MR                            MR MMRIND16-04-1990                                                                      Hyderabad           50003100000000000001
GL000551A5999999900222-02-201722-02-2017NM10390875       0000010000000000000     Raghavendra Singh             MR                            MR MMRIND14-02-1990                                                                      Hyderabad           50003100000000000001
GL000551A5999999900222-02-201722-02-2017NM10390876       0000010000000000000     Jyoti Tak                     MS                            MS FMRIND10-02-1988                                                                      Hyderabad           50003100000000000001
GL000551A5999999900222-02-201722-02-2017NM10390878       0000010000000000000     Prachi Gorle                  MS                            MS FMRIND10-08-1994                                                                      Hyderabad           50003100000000000001
GL000551A5999999900223-02-201723-02-2017NM10390882       0000010000000000000     Snehal Deth                   MS                            MS FMRIND25-04-1992                                                                      Hyderabad           50003100000000000001
GL000551A5999999900223-02-201723-02-2017NM10390897       0000010000000000000     Klirbon Teronpi               MS                            MS FMRIND23-01-1994                                                                      Hyderabad           50003100000000000001
GL000551A5999999900223-02-201723-02-2017NM10390906       0000010000000000000     Aghali Kiho                   MS                            MS FMRIND28-05-1994                                                                      Hyderabad           50003100000000000001
GL000551A5999999900223-02-201723-02-2017NM10390909       0000010000000000000     Rohit Mulay                   MR                            MR MMRIND21-03-1985                                                                      Hyderabad           50003100000000000001
GL000551A5999999900223-02-201723-02-2017NM10390912       0000010000000000000     Akshay Albhar                 MR                            MR MMRIND19-02-1991                                                                      Hyderabad           50003100000000000001
GL000551A5999999900223-02-201723-02-2017NM10390917       0000010000000000000     Ubaid Dar                     MR                            MR MMRIND09-11-1993                                                                      Hyderabad           50003100000000000001
GL000551A5999999900223-02-201723-02-2017NM10390930       0000010000000000000     Lungdouliu Chawang            MS                            MS FMRIND19-06-1995                                                                      Hyderabad           50003100000000000001
GL000551A5999999900223-02-201723-02-2017NM10390931       0000010000000000000     Cecilia Haokip                MS                            MS FMRIND20-06-1986                                                                      Hyderabad           50003100000000000001
GL000551A5999999900223-02-201723-02-2017NM10390936       0000010000000000000     Karishma Sejkar               MS                            MS FMRIND07-03-1990                                                                      Hyderabad           50003100000000000001
GL000551A5999999900223-02-201723-02-2017NM10390947       0000010000000000000     Saqib Manzoor                 MR                            MR MMRIND15-07-1994                                                                      Hyderabad           50003100000000000001
GL000551A5999999900223-02-201723-02-2017NM10390948       0000010000000000000     Akshay Mistry                 MR                            MR MMRIND27-11-1994                                                                      Hyderabad           50003100000000000001
GL000551A5999999900223-02-201723-02-2017NM10391105       0000010000000000000     Sudarshan Pawar               MR                            MR MMRIND16-11-1991                                                                      Hyderabad           50003100000000000001
GL000551A5999999900227-02-201727-02-2017NM10391178       0000010000000000000     Ashish Baviskar               MR                            MR MMRIND18-02-1995                                                                      Hyderabad           50003100000000000001
GL000551A5999999900227-02-201727-02-2017NM10391192       0000010000000000000     Jibin Kannamplackal           MR                            MR MMRIND08-02-1992                                                                      Hyderabad           50003100000000000001
GL000551A5999999900227-02-201727-02-2017NM10391358       0000010000000000000     Anjali Chauhan                MS                            MS FMRIND04-10-1990                                                                      Hyderabad           50003100000000000001
GL000551A5999999900227-02-201727-02-2017NM10391359       0000010000000000000     Madhumita Ghosh               MS                            MS FMRIND31-08-1995                                                                      Hyderabad           50003100000000000001
GL000551A5999999900227-02-201727-02-2017NM10391360       0000010000000000000     Aman Soni                     MR                            MR MMRIND19-10-1992                                                                      Hyderabad           50003100000000000001
GL000551A5999999900227-02-201727-02-2017NM10391362       0000010000000000000     Ayush Gupta                   MR                            MR MMRIND20-10-1994                                                                      Hyderabad           50003100000000000001
GL000551A5999999900227-02-201727-02-2017NM10391363       0000010000000000000     Tathagat Mahapatra            MR                            MR MMRIND01-01-1995                                                                      Hyderabad           50003100000000000001
GL000551A5999999900227-02-201727-02-2017NM10391364       0000010000000000000     Sruthi Reddy                  MS                            MS FMRIND19-05-1993                                                                      Hyderabad           50003100000000000001
GL000551A5999999900327-02-201727-02-2017NM10391369       0000035000000000000     Raushan Tiwari                MR                            MR MMRIND22-07-1986                                                                      Hyderabad           50003100000000000001
GL000551A5999999900227-04-201727-04-2017NM10400330       0000010000000000000     Amita Hanbarhatty             MS                            MS FMRIND30-06-1993                                                                      Hyderabad           50003100000000000001
GL000551A5999999900101-03-201701-03-2017NM10391690       0000020000000000000     Raju Raut                     MR                            MR MMRIND20-04-1985                                                                      Hyderabad           50003100000000000001
GL000551A5999999900202-03-201702-03-2017NM10389574       0000010000000000000     Twinky Rai                    MS                            MS FMRIND12-11-1993                                                                      Hyderabad           50003100000000000001
GL000551A5999999900206-03-201706-03-2017NM10392532       0000010000000000000     Achala Dubey                  MS                            MS FMRIND05-11-1992                                                                      Hyderabad           50003100000000000001
GL000551A5999999900106-03-201706-03-2017NM10392008       0000020000000000000     Sheelprabha Shete             MS                            MS FMRIND01-04-1983                                                                      Hyderabad           50003100000000000001
GL000551A5999999900306-03-201706-03-2017NM10390958       0000035000000000000     Nilesh Joshi                  MR                            MR MMRIND12-09-1981                                                                      Hyderabad           50003100000000000001
GL000551A5999999900106-03-201706-03-2017NM10392004       0000020000000000000     Sangram Khair                 MR                            MR MMRIND24-04-1989                                                                      Hyderabad           50003100000000000001
GL000551A5999999900106-03-201706-03-2017NM10391611       0000020000000000000     Parul Garg                    MS                            MS FMRIND28-08-1992                                                                      Hyderabad           50003100000000000001
GL000551A5999999900102-03-201702-03-2017NM10392533       0000020000000000000     Varun Tiwari                  MR                            MR MMRIND30-04-1989                                                                      Hyderabad           50003100000000000001
GL000551A5999999900109-03-201709-03-2017NM10392718       0000020000000000000     Sudhir Nagalgaon              MR                            MR MMRIND23-08-1991                                                                      Hyderabad           50003100000000000001
GL000551A5999999900209-03-201709-03-2017NM10393012       0000010000000000000     Anubala Patiyal               MS                            MS FMRIND27-08-1991                                                                      Hyderabad           50003100000000000001
GL000551A5999999900209-03-201709-03-2017NM10393013       0000010000000000000     Atrayee Neogi                 MS                            MS FMRIND15-11-1990                                                                      Hyderabad           50003100000000000001
GL000551A5999999900109-03-201709-03-2017NM10384779       0000020000000000000     Hiresh Sonar                  MR                            MR MMRIND01-06-1985                                                                      Hyderabad           50003100000000000001
GL000551A5999999900106-03-201706-03-2017NM10392902       0000020000000000000     Niveditha Chandrashekar       MS                            MS FMRIND08-12-1979                                                                      Hyderabad           50003100000000000001
GL000551A5999999900209-03-201709-03-2017NM10393018       0000010000000000000     Amrita Jha                    MS                            MS FMRIND06-09-1988                                                                      Hyderabad           50003100000000000001
GL000551A5999999900209-03-201709-03-2017NM10393030       0000010000000000000     Harshal Gaikwad               MR                            MR MMRIND25-09-1989                                                                      Hyderabad           50003100000000000001
GL000551A5999999900209-03-201709-03-2017NM10393020       0000010000000000000     Joy Pandit                    MR                            MR MMRIND27-03-1993                                                                      Hyderabad           50003100000000000001
GL000551A5999999900114-03-201714-03-2017NM10381178       0000020000000000000     Rishi Singh                   MR                            MR MMRIND13-06-1987                                                                      Hyderabad           50003100000000000001
GL000551A5999999900211-03-201711-03-2017NM10393728       0000010000000000000     Sumit Khune                   MR                            MR MMRIND25-02-1989                                                                      Hyderabad           50003100000000000001
GL000551A5999999900211-03-201711-03-2017NM10393731       0000010000000000000     Arpit Kumar                   MR                            MR MMRIND03-12-1993                                                                      Hyderabad           50003100000000000001
GL000551A5999999900211-03-201711-03-2017NM10393738       0000010000000000000     Ronald Gopalan                MR                            MR MMRIND19-02-1991                                                                      Hyderabad           50003100000000000001
GL000551A5999999900211-03-201711-03-2017NM10393730       0000010000000000000     Shivangi Rajput               MS                            MS FMRIND03-08-1992                                                                      Hyderabad           50003100000000000001
GL000551A5999999900211-03-201711-03-2017NM10393736       0000010000000000000     Riya Thakur                   MS                            MS FMRIND13-09-1992                                                                      Hyderabad           50003100000000000001
GL000551A5999999900211-03-201711-03-2017NM10393343       0000010000000000000     Karishma Meher                MS                            MS FMRIND24-03-1992                                                                      Hyderabad           50003100000000000001
GL000551A5999999900211-03-201711-03-2017NM10393732       0000010000000000000     Manpreet Matharu              MR                            MR MMRIND09-07-1984                                                                      Hyderabad           50003100000000000001
GL000551A5999999900211-03-201711-03-2017NM10393727       0000010000000000000     Rajesh Pillay                 MR                            MR MMRIND19-05-1991                                                                      Hyderabad           50003100000000000001
GL000551A5999999900115-03-201715-03-2017NM10393960       0000020000000000000     Aliyah Chotani                MS                            MS FMRIND23-02-1987                                                                      Hyderabad           50003100000000000001
GL000551A5999999900116-03-201716-03-2017NM10391988       0000020000000000000     Sachin Karalay                MR                            MR MMRIND17-10-1981                                                                      Hyderabad           50003100000000000001
GL000551A5999999900216-03-201716-03-2017NM10393962       0000010000000000000     Apurva Rokade                 MS                            MS FMRIND06-01-1989                                                                      Hyderabad           50003100000000000001
GL000551A5999999900216-03-201716-03-2017NM10393965       0000010000000000000     Azim Shaikh                   MR                            MR MMRIND20-08-1980                                                                      Hyderabad           50003100000000000001
GL000551A5999999900216-03-201716-03-2017NM10393959       0000010000000000000     Kiara Pareek                  MS                            MS FMRIND03-06-1985                                                                      Hyderabad           50003100000000000001
GL000551A5999999900216-03-201716-03-2017NM10394086       0000010000000000000     Donald maxwell Harris         MR                            MR MMRIND08-12-1981                                                                      Hyderabad           50003100000000000001
GL000551A5999999900216-03-201716-03-2017NM10394064       0000010000000000000     Pulkit Kawatra                MR                            MR MMRIND09-06-1992                                                                      Hyderabad           50003100000000000001
GL000551A5999999900216-03-201716-03-2017NM10394072       0000010000000000000     Shashikant Puri               MR                            MR MMRIND07-03-1989                                                                      Hyderabad           50003100000000000001
GL000551A5999999900216-03-201716-03-2017NM10394316       0000010000000000000     Shrunali Kabade               MS                            MS FMRIND28-04-1993                                                                      Hyderabad           50003100000000000001
GL000551A5999999900216-03-201716-03-2017NM10394314       0000010000000000000     Deepika Adwani                MS                            MS FMRIND29-10-1991                                                                      Hyderabad           50003100000000000001
GL000551A5999999900216-03-201716-03-2017NM10394070       0000010000000000000     Abhilash B                    MR                            MR MMRIND16-01-1993                                                                      Hyderabad           50003100000000000001
GL000551A5999999900216-03-201716-03-2017NM10394073       0000010000000000000     Neharani Surpurkar            MS                            MS FMRIND14-08-1986                                                                      Hyderabad           50003100000000000001
GL000551A5999999900216-03-201716-03-2017NM10394080       0000010000000000000     Rahul Salve                   MR                            MR MMRIND22-10-1991                                                                      Hyderabad           50003100000000000001
GL000551A5999999900216-03-201716-03-2017NM10394319       0000010000000000000     Kunal Paturkar                MR                            MR MMRIND09-12-1991                                                                      Hyderabad           50003100000000000001
GL000551A5999999900216-03-201716-03-2017NM10394089       0000010000000000000     Sonu Khajekar                 MS                            MS FMRIND16-01-1993                                                                      Hyderabad           50003100000000000001
GL000551A5999999900216-03-201716-03-2017NM10394093       0000010000000000000     Trigun Shergill               MR                            MR MMRIND02-11-1994                                                                      Hyderabad           50003100000000000001
GL000551A5999999900120-03-201720-03-2017NM10392700       0000020000000000000     Chaitrali Bhanji              MS                            MS FMRIND13-04-1987                                                                      Hyderabad           50003100000000000001
GL000551A5999999900320-03-201720-03-2017NM10393033       0000035000000000000     Amrita Saraf                  MS                            MS FMRIND16-02-1978                                                                      Hyderabad           50003100000000000001
GL000551A5999999900120-03-201720-03-2017NM10394809       0000020000000000000     Gouri Bhandari                MS                            MS FMRIND02-03-1992                                                                      Hyderabad           50003100000000000001
GL000551A5999999900320-03-201720-03-2017NM10394591       0000035000000000000     Nitendra Moitra               MR                            MR MMRIND27-08-1983                                                                      Hyderabad           50003100000000000001
GL000551A5999999900216-03-201716-03-2017NM10394075       0000010000000000000     Santosh Kasbe                 MR                            MR MMRIND06-10-1985                                                                      Hyderabad           50003100000000000001
GL000551A5999999900220-03-201720-03-2017NM10394592       0000010000000000000     Irfan Sayyed                  MR                            MR MMRIND28-07-1988                                                                      Hyderabad           50003100000000000001
GL000551A5999999900220-03-201720-03-2017NM10394595       0000010000000000000     Mayuri Mandliya               MS                            MS FMRIND12-12-1987                                                                      Hyderabad           50003100000000000001
GL000551A5999999900220-03-201720-03-2017NM10394599       0000010000000000000     Rahul Jadhav                  MR                            MR MMRIND02-11-1991                                                                      Hyderabad           50003100000000000001
GL000551A5999999900220-03-201720-03-2017NM10394597       0000010000000000000     Shrikant Kamble               MR                            MR MMRIND11-09-1986                                                                      Hyderabad           50003100000000000001
GL000551A5999999900220-03-201720-03-2017NM10394594       0000010000000000000     Amrit pal Singh               MR                            MR MMRIND19-06-1989                                                                      Hyderabad           50003100000000000001
GL000551A5999999900220-03-201720-03-2017NM10394605       0000010000000000000     Suyog Ovhal                   MR                            MR MMRIND07-08-1991                                                                      Hyderabad           50003100000000000001
GL000551A5999999900220-03-201720-03-2017NM10394601       0000010000000000000     Suraj Singh                   MR                            MR MMRIND16-04-1994                                                                      Hyderabad           50003100000000000001
GL000551A5999999900220-03-201720-03-2017NM10394603       0000010000000000000     Swapnil Shirke                MR                            MR MMRIND14-03-1992                                                                      Hyderabad           50003100000000000001
GL000551A5999999900220-03-201720-03-2017NM10394604       0000010000000000000     Utkarsha Patole               MS                            MS FMRIND09-12-1991                                                                      Hyderabad           50003100000000000001
GL000551A5999999900220-03-201720-03-2017NM10394602       0000010000000000000     Vinit Kshirsagar              MR                            MR MMRIND16-04-1987                                                                      Hyderabad           50003100000000000001
GL000551A5999999900220-03-201720-03-2017NM10394593       0000010000000000000     Harshal Wagh                  MR                            MR MMRIND30-10-1983                                                                      Hyderabad           50003100000000000001
GL000551A5999999900220-03-201720-03-2017NM10394970       0000010000000000000     Sayyad Azharuddin             MR                            MR MMRIND18-03-1992                                                                      Hyderabad           50003100000000000001
GL000551A5999999900223-03-201723-03-2017NM10394977       0000010000000000000     Mangesh Kale                  MR                            MR MMRIND24-12-1989                                                                      Hyderabad           50003100000000000001
GL000551A5999999900223-03-201723-03-2017NM10394991       0000010000000000000     Akshay Khedkar                MR                            MR MMRIND24-12-1992                                                                      Hyderabad           50003100000000000001
GL000551A5999999900223-03-201723-03-2017NM10394600       0000010000000000000     Ritesh Pradhan                MR                            MR MMRIND13-12-1991                                                                      Hyderabad           50003100000000000001
GL000551A5999999900223-03-201723-03-2017NM10393031       0000010000000000000     Vicky Awale                   MR                            MR MMRIND28-08-1989                                                                      Hyderabad           50003100000000000001
GL000551A5999999900223-03-201723-03-2017NM10395176       0000010000000000000     Mohamad sadiq Kazi            MR                            MR MMRIND13-12-1986                                                                      Hyderabad           50003100000000000001
GL000551A5999999900223-03-201723-03-2017NM10395116       0000010000000000000     Huzefa Kaba                   MR                            MR MMRIND25-03-1992                                                                      Hyderabad           50003100000000000001
GL000551A5999999900223-03-201723-03-2017NM10393014       0000010000000000000     Akash Sehrawat                MR                            MR MMRIND20-07-1996                                                                      Hyderabad           50003100000000000001
GL000551A5999999900223-03-201723-03-2017NM10395122       0000010000000000000     Nikhil Lalbige                MR                            MR MMRIND01-08-1985                                                                      Hyderabad           50003100000000000001
GL000551A5999999900223-03-201723-03-2017NM10395171       0000010000000000000     Suraj Mishra                  MR                            MR MMRIND12-04-1989                                                                      Hyderabad           50003100000000000001
GL000551A5999999900223-03-201723-03-2017NM10395172       0000010000000000000     Zeeshan Shaikh                MR                            MR MMRIND23-04-1991                                                                      Hyderabad           50003100000000000001
GL000551A5999999900223-03-201723-03-2017NM10395177       0000010000000000000     Fahad Sayyed                  MR                            MR MMRIND02-02-1987                                                                      Hyderabad           50003100000000000001
GL000551A5999999900223-03-201723-03-2017NM10395125       0000010000000000000     Prakash Mathew                MR                            MR MMRIND16-05-1982                                                                      Hyderabad           50003100000000000001
GL000551A5999999900223-03-201723-03-2017NM10395118       0000010000000000000     Munmun Roy                    MS                            MS FMRIND28-09-1998                                                                      Hyderabad           50003100000000000001
GL000551A5999999900223-03-201723-03-2017NM10394812       0000010000000000000     Onkar Patil                   MR                            MR MMRIND02-12-1987                                                                      Hyderabad           50003100000000000001
GL000551A5999999900223-03-201723-03-2017NM10395121       0000010000000000000     Karan Sharma                  MR                            MR MMRIND01-08-1992                                                                      Hyderabad           50003100000000000001
GL000551A5999999900223-03-201723-03-2017NM10395126       0000010000000000000     Rashmi Mahajan                MS                            MS FMRIND27-02-1989                                                                      Hyderabad           50003100000000000001
GL000551A5999999900223-03-201723-03-2017NM10395175       0000010000000000000     Satyam Kumar                  MR                            MR MMRIND21-12-1992                                                                      Hyderabad           50003100000000000001
GL000551A5999999900223-03-201723-03-2017NM10395384       0000010000000000000     Shashank Verule               MR                            MR MMRIND15-03-1993                                                                      Hyderabad           50003100000000000001
GL000551A5999999900223-03-201723-03-2017NM10394994       0000010000000000000     Mehdi Jawadi                  MR                            MR MMRIND10-04-1994                                                                      Hyderabad           50003100000000000001
GL000551A5999999900227-03-201727-03-2017NM10394894       0000010000000000000     Tessi Aykara                  MS                            MS FMRIND24-08-1991                                                                      Hyderabad           50003100000000000001
GL000551A5999999900327-03-201727-03-2017NM10394808       0000035000000000000     Shailesh Sapate               MR                            MR MMRIND29-07-1984                                                                      Hyderabad           50003100000000000001
GL000551A5999999900127-03-201727-03-2017NM10392185       0000020000000000000     Rahul Shinde                  MR                            MR MMRIND29-07-1987                                                                      Hyderabad           50003100000000000001
GL000551A5999999900223-03-201723-03-2017NM10395178       0000010000000000000     Ashwin Singh                  MR                            MR MMRIND03-09-1991                                                                      Hyderabad           50003100000000000001
GL000551A5999999900130-03-201730-03-2017NM10383428       0000020000000000000     Priyanka Borsare              MS                            MS FMRIND26-08-1985                                                                      Hyderabad           50003100000000000001
GL000551A5999999900230-03-201730-03-2017NM10396115       0000010000000000000     Siddhartha Dey                MR                            MR MMRIND18-04-1991                                                                      Hyderabad           50003100000000000001
GL000551A5999999900230-03-201730-03-2017NM10396321       0000010000000000000     Sachin Dhavale                MR                            MR MMRIND05-09-1980                                                                      Hyderabad           50003100000000000001
GL000551A5999999900230-03-201730-03-2017NM10396113       0000010000000000000     Juel Debbarma                 MS                            MS FMRIND18-05-1989                                                                      Hyderabad           50003100000000000001
GL000551A5999999900230-03-201730-03-2017NM10396093       0000010000000000000     Devyani Raheja                MS                            MS FMRIND25-08-1976                                                                      Hyderabad           50003100000000000001
GL000551A5999999900230-03-201730-03-2017NM10396090       0000010000000000000     Anirban Ganguly               MR                            MR MMRIND16-06-1987                                                                      Hyderabad           50003100000000000001
GL000551A5999999900230-03-201730-03-2017NM10396085       0000010000000000000     Akshay Bandewar               MR                            MR MMRIND27-05-1989                                                                      Hyderabad           50003100000000000001
GL000551A5999999900230-03-201730-03-2017NM10396114       0000010000000000000     Shama Dixit                   MS                            MS FMRIND06-08-1989                                                                      Hyderabad           50003100000000000001
GL000551A5999999900230-03-201730-03-2017NM10396322       0000010000000000000     Dhanashree Patil              MS                            MS FMRIND18-09-1991                                                                      Hyderabad           50003100000000000001
GL000551A5999999900230-03-201730-03-2017NM10396112       0000010000000000000     Rahul Brahme                  MR                            MR MMRIND08-03-1972                                                                      Hyderabad           50003100000000000001
GL000551A5999999900202-11-201602-11-2016NM10362685       0000010000000000000     Abdulmajid Hakim              MR                            MR MMRIND25-08-1997                                                                      Hyderabad           50003100000000000001
GL000551A5999999900207-12-201607-12-2016NM10364045       0000010000000000000     Aishwarya Maheshwari          MS                            MS FMRIND14-11-1992                                                                      Hyderabad           50003100000000000001
GL000551A5999999900202-12-201602-12-2016NM10297860       0000010000000000000     Nelson Jagtap                 MR                            MR MMRIND15-09-1993                                                                      Hyderabad           50003100000000000001
GL000551A5999999900205-01-201705-01-2017NM10349814       0000010000000000000     Sapna Kaur                    MS                            MS FMRIND11-01-1985                                                                      Hyderabad           50003100000000000001
GL000551A5999999900218-01-201718-01-2017NM10364147       0000010000000000000     Vipul Kavle                   MR                            MR MMRIND14-09-1988                                                                      Hyderabad           50003100000000000001
