GL000551T        00009-02-201709-02-2017NM10386706       0000000000000000000  T2 Chinmay Salvi                 
GL000551T        00017-02-201717-02-2017NM10362666       0000000000000000000  T2 Ryan Besterwitch              
GL000551T        00021-02-201721-02-2017NM10372282       0000000000000000000  T2 Aditya Chavan                 
GL000551T        00018-02-201718-02-2017NM10372669       0000000000000000000  T2 Rahmat Gulamhusein            
GL000551T        00025-02-201725-02-2017NM10298008       0000000000000000000  T2 Rehan Kazi                    
GL000551T        00021-02-201721-02-2017NM10371474       0000000000000000000  T2 Vanzamliana Lalmuanpuia       
GL000551T        00025-02-201725-02-2017NM10386152       0000000000000000000  T2 Sangita Pawar                 
GL000551T        00023-02-201723-02-2017NM10271640       0000000000000000000  T2 Godfrey Dalmet                
GL000551T        00018-02-201718-02-2017NM10305209       0000000000000000000  T2 Suzan Anthony                 
GL000551T        00024-02-201724-02-2017NM10251351       0000000000000000000  T2 Vilas Dhobale                 
GL000551T        00020-02-201720-02-2017NM10369841       0000000000000000000  T2 Dhanvi Padh                   
GL000551T        00020-02-201720-02-2017NM10274105       0000000000000000000  T2 Tazeen Shaikh                 
GL000551T        00028-02-201728-02-2017NM10351401       0000000000000000000  T2 Niketa Punjabi                
GL000551T        00028-02-201728-02-2017NM10351438       0000000000000000000  T2 Sarthak Tripathi              
GL000551T        00018-02-201718-02-2017NM10375766       0000000000000000000  T2 Anisha Naik                   
GL000551T        00028-02-201728-02-2017NM10361944       0000000000000000000  T2 Amarjeetsingh Rathod          
GL000551T        00024-02-201724-02-2017NM10378206       0000000000000000000  T2 Dipak Shinde                  
GL000551T        00028-02-201728-02-2017NM10363288       0000000000000000000  T2 Divya Birdi                   
GL000551T        00024-02-201724-02-2017NM10378770       0000000000000000000  T2 Farid Shaikh                  
GL000551T        00026-02-201726-02-2017NM10371158       0000000000000000000  T2 Gaurav Mahadole               
GL000551T        00024-02-201724-02-2017NM10371229       0000000000000000000  T2 Gaurav Naik                   
GL000551T        00028-02-201728-02-2017NM10352146       0000000000000000000  T2 Jay Choudhary                 
GL000551T        00028-02-201728-02-2017NM10375667       0000000000000000000  T2 Jiten Sharma                  
GL000551T        00026-02-201726-02-2017NM10371655       0000000000000000000  T2 Mohammed Isthiyad             
GL000551T        00024-02-201724-02-2017NM10365196       0000000000000000000  T2 Nikhil Joshi                  
GL000551T        00024-02-201724-02-2017NM10372662       0000000000000000000  T2 Rhythm Sharma                 
GL000551T        00028-02-201728-02-2017NM10355315       0000000000000000000  T2 Ritesh Kalvellu               
GL000551T        00028-02-201728-02-2017NM10369978       0000000000000000000  T2 Ritha Vishwakarma             
GL000551T        00028-02-201728-02-2017NM10376762       0000000000000000000  T2 Sanjay Nagdev                 
GL000551T        00024-02-201724-02-2017NM10372665       0000000000000000000  T2 Shubhankar Agrawal            
GL000551T        00024-02-201724-02-2017NM10378789       0000000000000000000  T2 Vaibhav Kadale                
GL000551T        00026-02-201726-02-2017NM10340868       0000000000000000000  T2 Vikram Raut                   
GL000551T        00026-02-201726-02-2017NM10367704       0000000000000000000  T2 Zubair Sayyed                 
GL000551T        00022-02-201722-02-2017NM10311217       0000000000000000000  T2 Vrushali Nikumbh              
GL000551T        00001-03-201701-03-2017NM10355300       0000000000000000000  T2 Albina Das                    
GL000551T        00001-03-201701-03-2017NM10293505       0000000000000000000  T2 Monika Rawat                  
GL000551T        00001-03-201701-03-2017NM10338806       0000000000000000000  T2 Prasad Kulkarni               
GL000551T        00001-03-201701-03-2017NM10350917       0000000000000000000  T2 Ishanee Raychaudhuri          
GL000551T        00008-02-201708-02-2017NM10387930       0000000000000000000  T2 Kavya sree Ramachandrapurapu  
GL000551T        00014-04-201714-04-2017NM10386709       0000000000000000000  T2 Aakash Mallick                
GL000551T        00017-04-201717-04-2017NM10375823       0000000000000000000  T2 Daniel De lemos               
GL000551T        00017-04-201717-04-2017NM10355295       0000000000000000000  T2 Mrunal Durge                  
GL000551T        00018-04-201718-04-2017NM10270568       0000000000000000000  T2 Kishor Badhe                  
GL000551T        00019-04-201719-04-2017NM10337906       0000000000000000000  T2 Rahul Sakpal                  
GL000551T        00020-04-201720-04-2017NM10373282       0000000000000000000  T2 Rohan Pataekar                
GL000551T        00020-04-201720-04-2017NM10331571       0000000000000000000  T2 Radha Agarwal                 
GL000551T        00020-04-201720-04-2017NM10375763       0000000000000000000  T2 Jewel Fernandes               
GL000551T        00020-04-201720-04-2017NM10382275       0000000000000000000  T2 Vivek Dharoch                 
GL000551T        00021-04-201721-04-2017NM10376649       0000000000000000000  T2 Nischal Prasad                
GL000551T        00021-04-201721-04-2017NM10361313       0000000000000000000  T2 Anis Tamboli                  
GL000551T        00021-04-201721-04-2017NM10376695       0000000000000000000  T2 Fawzeeb gowhar Phamboo        
GL000551T        00022-04-201722-04-2017NM10369625       0000000000000000000  T2 Hirelle Bhalerao              
GL000551T        00022-04-201722-04-2017NM10351387       0000000000000000000  T2 Akash Chakraborty             
GL000551T        00022-04-201722-04-2017NM10386110       0000000000000000000  T2 Pareeta Pereira               
GL000551T        00022-04-201722-04-2017NM10287362       0000000000000000000  T2 Reena Peter                   
GL000551T        00022-04-201722-04-2017NM10312478       0000000000000000000  T2 Sana Shaikh                   
GL000551T        00022-04-201722-04-2017NM10251442       0000000000000000000  T2 Sonali Jain                   
GL000551T        00022-04-201722-04-2017NM10338785       0000000000000000000  T2 Arpita Maan                   
GL000551T        00023-04-201723-04-2017NM10368579       0000000000000000000  T2 Mufaddal Fatepurwala          
GL000551T        00023-04-201723-04-2017NM10355699       0000000000000000000  T2 Esha Kaul                     
GL000551T        00023-04-201723-04-2017NM10356449       0000000000000000000  T2 Heena Shaikh                  
GL000551T        00024-04-201724-04-2017NM10377590       0000000000000000000  T2 Shradha Pherwani              
GL000551T        00025-04-201725-04-2017NM10360477       0000000000000000000  T2 Sanju kanwar Shekhawat        
GL000551T        00025-04-201725-04-2017NM10276870       0000000000000000000  T2 Yasmeen Shaikh                
GL000551T        00025-04-201725-04-2017NM10380215       0000000000000000000  T2 Mustafa Kalla                 
GL000551T        00003-03-201703-03-2017NM10376381       0000000000000000000  T2 Alice Chettiar                
GL000551T        00009-03-201709-03-2017NM10376764       0000000000000000000  T2 Ashish Na                     
GL000551T        00010-03-201710-03-2017NM10358025       0000000000000000000  T2 Austin Nathan                 
GL000551T        00009-03-201709-03-2017NM10362230       0000000000000000000  T2 Celine Tadke                  
GL000551T        00005-03-201705-03-2017NM10371638       0000000000000000000  T2 Priyanka Chavan               
GL000551T        00006-03-201706-03-2017NM10292835       0000000000000000000  T2 Roistin Anthony               
GL000551T        00008-03-201708-03-2017NM10333129       0000000000000000000  T2 Shubham Angirwal              
GL000551T        00010-03-201710-03-2017NM10375817       0000000000000000000  T2 Siddharth Gajra               
GL000551T        00010-03-201710-03-2017NM10376709       0000000000000000000  T2 Sonia Bharaj                  
GL000551T        00004-03-201704-03-2017NM10365572       0000000000000000000  T2 Varun Jain                    
GL000551T        00004-03-201704-03-2017NM10386606       0000000000000000000  T2 Naina Bhowate                 
GL000551T        00004-03-201704-03-2017NM10305538       0000000000000000000  T2 Shrivdya Iyer                 
GL000551T        00008-03-201708-03-2017NM10352251       0000000000000000000  T2 Rachel Francis                
GL000551T        00008-03-201708-03-2017NM10297534       0000000000000000000  T2 Rolly Kikon                   
GL000551T        00008-03-201708-03-2017NM10330613       0000000000000000000  T2 Kamjimong Yimchunger          
GL000551T        00007-03-201707-03-2017NM10251576       0000000000000000000  T2 Sachin Landge                 
GL000551T        00008-03-201708-03-2017NM10251287       0000000000000000000  T2 Vinayak Chavan                
GL000551T        00005-03-201705-03-2017NM10338563       0000000000000000000  T2 Monisha Mohan                 
GL000551T        00010-03-201710-03-2017NM10277079       0000000000000000000  T2 Nasir Shaikh                  
GL000551T        00005-03-201705-03-2017NM10297584       0000000000000000000  T2 Temjensola Limainba           
GL000551T        00007-03-201707-03-2017NM10363207       0000000000000000000  T2 Notsonu Pusa                  
GL000551T        00002-03-201702-03-2017NM10356987       0000000000000000000  T2 Sanaue Shahid                 
GL000551T        00004-03-201704-03-2017NM10282812       0000000000000000000  T2 Sushma Chhetri                
GL000551T        00004-03-201704-03-2017NM10310070       0000000000000000000  T2 Umang Mishra                  
GL000551T        00009-03-201709-03-2017NM10361043       0000000000000000000  T2 Harshal Chavan                
GL000551T        00003-03-201703-03-2017NM10349804       0000000000000000000  T2 Parikshit Sachdev             
GL000551T        00007-03-201707-03-2017NM10374827       0000000000000000000  T2 Abel Venkatachalam            
GL000551T        00008-03-201708-03-2017NM10375821       0000000000000000000  T2 Alesh Fate                    
GL000551T        00008-03-201708-03-2017NM10382168       0000000000000000000  T2 Anubhuti Agrawal              
GL000551T        00007-03-201707-03-2017NM10350460       0000000000000000000  T2 Anuradha Gaikwad              
GL000551T        00003-03-201703-03-2017NM10365193       0000000000000000000  T2 Itisha Kondalkar              
GL000551T        00005-03-201705-03-2017NM10251465       0000000000000000000  T2 Manuel Reed                   
GL000551T        00002-03-201702-03-2017NM10378773       0000000000000000000  T2 Rahul C                       
GL000551T        00007-03-201707-03-2017NM10374844       0000000000000000000  T2 Rajat Mutha                   
GL000551T        00008-03-201708-03-2017NM10369601       0000000000000000000  T2 Shanif Sayed                  
GL000551T        00004-03-201704-03-2017NM10378486       0000000000000000000  T2 Shraddha Randive              
GL000551T        00016-03-201716-03-2017NM10344581       0000000000000000000  T2 Sumit Roy                     
GL000551T        00015-03-201715-03-2017NM10312915       0000000000000000000  T2 Swapnil Humbare               
GL000551T        00015-03-201715-03-2017NM10251928       0000000000000000000  T2 Tapas DE                      
GL000551T        00014-03-201714-03-2017NM10251405       0000000000000000000  T2 Nolan Jayasilan               
GL000551T        00011-03-201711-03-2017NM10251361       0000000000000000000  T2 Suresh Nair                   
GL000551T        00012-03-201712-03-2017NM10307275       0000000000000000000  T2 Ashish Sanap                  
GL000551T        00014-03-201714-03-2017NM10362825       0000000000000000000  T2 Mario Gyanprakasm             
GL000551T        00012-03-201712-03-2017NM10277074       0000000000000000000  T2 Nikhil Gaikwad                
GL000551T        00008-03-201708-03-2017NM10358009       0000000000000000000  T2 Purva Jadhav                  
GL000551T        00016-03-201716-03-2017NM10375412       0000000000000000000  T2 Rajendra Rana                 
GL000551T        00017-03-201717-03-2017NM10372008       0000000000000000000  T2 Sahil Garg                    
GL000551T        00011-03-201711-03-2017NM10351425       0000000000000000000  T2 Gaurav Singh                  
GL000551T        00017-03-201717-03-2017NM10362529       0000000000000000000  T2 Jamuna Hansdah                
GL000551T        00017-03-201717-03-2017NM10365215       0000000000000000000  T2 Mohammad iliyas Nadaf         
GL000551T        00015-03-201715-03-2017NM10372674       0000000000000000000  T2 Omkar Deshpande               
GL000551T        00016-03-201716-03-2017NM10346945       0000000000000000000  T2 Renu Awaghade                 
GL000551T        00014-03-201714-03-2017NM10363162       0000000000000000000  T2 Sonali Sakhare                
GL000551T        00017-03-201717-03-2017NM10333131       0000000000000000000  T2 Vishal Salve                  
GL000551T        00022-03-201722-03-2017NM10360998       0000000000000000000  T2 Ashpak Khan                   
GL000551T        00022-03-201722-03-2017NM10273684       0000000000000000000  T2 Girish Chhabria               
GL000551T        00017-03-201717-03-2017NM10380198       0000000000000000000  T2 Mohammed Bohari               
GL000551T        00022-03-201722-03-2017NM10386602       0000000000000000000  T2 Payal Jadhav                  
GL000551T        00018-03-201718-03-2017NM10321436       0000000000000000000  T2 Fauzan Sayyed inamdar         
GL000551T        00020-03-201720-03-2017NM10330516       0000000000000000000  T2 Rubean Tribhuwan              
GL000551T        00021-03-201721-03-2017NM10267542       0000000000000000000  T2 Darren Remedios               
GL000551T        00021-03-201721-03-2017NM10346619       0000000000000000000  T2 Shabir Navalur                
GL000551T        00023-03-201723-03-2017NM10373763       0000000000000000000  T2 Atul Nair                     
GL000551T        00027-03-201727-03-2017NM10365559       0000000000000000000  T2 Abbas Bilgrami                
GL000551T        00019-03-201719-03-2017NM10362509       0000000000000000000  T2 Manisha Khurana               
GL000551T        00021-03-201721-03-2017NM10380230       0000000000000000000  T2 Nilesh S                      
GL000551T        00024-03-201724-03-2017NM10364882       0000000000000000000  T2 Rubina Shaikh                 
GL000551T        00025-03-201725-03-2017NM10362536       0000000000000000000  T2 Akshay Surse                  
GL000551T        00019-03-201719-03-2017NM10378791       0000000000000000000  T2 Aman Singh                    
GL000551T        00025-03-201725-03-2017NM10371637       0000000000000000000  T2 Arun Kumar                    
GL000551T        00025-03-201725-03-2017NM10378553       0000000000000000000  T2 Hanok Subba                   
GL000551T        00023-03-201723-03-2017NM10361021       0000000000000000000  T2 Harish Kulkarni               
GL000551T        00025-03-201725-03-2017NM10376674       0000000000000000000  T2 Imran Khan                    
GL000551T        00025-03-201725-03-2017NM10381768       0000000000000000000  T2 Justin sungte Hmar            
GL000551T        00024-03-201724-03-2017NM10355861       0000000000000000000  T2 Pankaj Kate                   
GL000551T        00024-03-201724-03-2017NM10355728       0000000000000000000  T2 Prachi Kale                   
GL000551T        00025-03-201725-03-2017NM10364086       0000000000000000000  T2 Preeti Vishwakarma            
GL000551T        00024-03-201724-03-2017NM10364873       0000000000000000000  T2 Rajesh K R                    
GL000551T        00024-03-201724-03-2017NM10376418       0000000000000000000  T2 Sangam Patle                  
GL000551T        00025-03-201725-03-2017NM10364843       0000000000000000000  T2 Sharayu Dhadake               
GL000551T        00024-03-201724-03-2017NM10376345       0000000000000000000  T2 Shikha Jain                   
GL000551T        00023-03-201723-03-2017NM10386156       0000000000000000000  T2 Amol Jadhav                   
GL000551T        00001-03-201701-03-2017NM10252137       0000000000000000000  T2 Amit Kulkarni                 
GL000551T        00001-03-201701-03-2017NM10252198       0000000000000000000  T2 Khurram Shaikh                
GL000551T        00001-03-201701-03-2017NM10252332       0000000000000000000  T2 Mandar Nene                   
GL000551T        00001-03-201701-03-2017NM10252314       0000000000000000000  T2 Nilesh Gaikwad                
GL000551T        00003-03-201703-03-2017NM10252076       0000000000000000000  T2 Prasad Lande                  
GL000551T        00003-03-201703-03-2017NM10252021       0000000000000000000  T2 Sarbjot Gharu                 
GL000551T        00001-03-201701-03-2017NM10252109       0000000000000000000  T2 Zakir Khan                    
GL000551T        00029-03-201729-03-2017NM10386714       0000000000000000000  T2 Abhijit Vernekar              
GL000551T        00029-03-201729-03-2017NM10376604       0000000000000000000  T2 Aditya Chakurkar              
GL000551T        00031-03-201731-03-2017NM10376408       0000000000000000000  T2 Aishwarya Chavan              
GL000551T        00031-03-201731-03-2017NM10354012       0000000000000000000  T2 Aishwarya Nair                
GL000551T        00001-04-201701-04-2017NM10378768       0000000000000000000  T2 Aliakbar Polishwala           
GL000551T        00028-03-201728-03-2017NM10313006       0000000000000000000  T2 Andrew Fernandes              
GL000551T        00029-03-201729-03-2017NM10366152       0000000000000000000  T2 Anthony Donald Chang          
GL000551T        00026-03-201726-03-2017NM10373821       0000000000000000000  T2 Asma Mahat                    
GL000551T        00029-03-201729-03-2017NM10376343       0000000000000000000  T2 Cynthia Debbarma              
GL000551T        00001-04-201701-04-2017NM10374949       0000000000000000000  T2 Ginson Thokadam               
GL000551T        00001-04-201701-04-2017NM10330440       0000000000000000000  T2 Himani Sutradhar              
GL000551T        00001-04-201701-04-2017NM10339758       0000000000000000000  T2 Ibrahim Alibaghwala           
GL000551T        00001-04-201701-04-2017NM10276966       0000000000000000000  T2 Kartika Thangarajan           
GL000551T        00029-03-201729-03-2017NM10378094       0000000000000000000  T2 Manmohan Diwakaran            
GL000551T        00031-03-201731-03-2017NM10276965       0000000000000000000  T2 Neelam Devi                   
GL000551T        00031-03-201731-03-2017NM10358117       0000000000000000000  T2 Peter Shukla                  
GL000551T        00031-03-201731-03-2017NM10348138       0000000000000000000  T2 Radhika KR                    
GL000551T        00026-03-201726-03-2017NM10353954       0000000000000000000  T2 Rekha Kesarkar                
GL000551T        00001-04-201701-04-2017NM10374919       0000000000000000000  T2 Richard Smith                 
GL000551T        00001-04-201701-04-2017NM10377414       0000000000000000000  T2 Ruchi Soam                    
GL000551T        00031-03-201731-03-2017NM10313629       0000000000000000000  T2 Saniya Shaikh                 
GL000551T        00031-03-201731-03-2017NM10366387       0000000000000000000  T2 Sanjeev Karmakar              
GL000551T        00031-03-201731-03-2017NM10369068       0000000000000000000  T2 Saurabh Mahajan               
GL000551T        00030-03-201730-03-2017NM10376410       0000000000000000000  T2 Sharvani Lokre                
GL000551T        00030-03-201730-03-2017NM10383713       0000000000000000000  T2 Shrikant Bhosale              
GL000551T        00026-03-201726-03-2017NM10338774       0000000000000000000  T2 Shubhangi Bawner              
GL000551T        00028-03-201728-03-2017NM10384353       0000000000000000000  T2 Snehalkumar Kadam             
GL000551T        00028-03-201728-03-2017NM10365205       0000000000000000000  T2 Suvarna Dupate                
GL000551T        00029-03-201729-03-2017NM10369597       0000000000000000000  T2 Vikrant Kumar                 
GL000551T        00001-04-201701-04-2017NM10251356       0000000000000000000  T2 Vrushali Poddar               
