GL000469T        00002-06-201602-06-2016NM46960          0000000000000000000  T2 Anoop John                    
GL000469T        00018-08-201618-08-2016NM46961          0000000000000000000  T2 Love Kumar                    
GL000469T        00018-08-201618-08-2016NM46962          0000000000000000000  T2 Chaitanya Sapkal              
GL000469T        00018-08-201618-08-2016NM46963          0000000000000000000  T2 Rajesh M                      
GL000469T        00018-08-201618-08-2016NM46965          0000000000000000000  T2 Jitesh                        
GL000469T        00002-06-201602-06-2016NM48223          0000000000000000000  T2 Niyati Nanda                  
GL000469T        00002-06-201602-06-2016NM48225          0000000000000000000  T2 Rahul V Kolhekar              
GL000469T        00002-06-201602-06-2016NM48227          0000000000000000000  T2 Adam Shafiulla Shaik          
GL000469T        00001-05-201601-05-2016NM48228          0000000000000000000  T2 Hemendra Sata                 
