GL000468T        00017-07-201617-07-2016NM1158           0000000000000000000  T2 Rohit Phutane                 
GL000468T        00017-07-201617-07-2016NM1104           0000000000000000000  T2                               
GL000468T        00017-07-201617-07-2016NM1105           0000000000000000000  T2                               
GL000468T        00017-07-201617-07-2016NM1106           0000000000000000000  T2                               
GL000468T        00017-07-201617-07-2016NM1114           0000000000000000000  T2                               
GL000468T        00016-04-201616-04-2016NM1117A          0000000000000000000  T2                               
GL000468T        00016-04-201616-04-2016NM1119           0000000000000000000  T2                               
GL000468T        00016-04-201616-04-2016NM1120           0000000000000000000  T2                               
GL000468T        00016-04-201616-04-2016NM1121           0000000000000000000  T2                               
GL000468T        00016-04-201616-04-2016NM1122           0000000000000000000  T2                               
GL000468T        00013-03-201613-03-2016NM1125           0000000000000000000  T2                               
GL000468T        00013-03-201613-03-2016NM1127           0000000000000000000  T2                               
GL000468T        00013-03-201613-03-2016NM1130           0000000000000000000  T2                               
GL000468T        00013-03-201613-03-2016NM1131           0000000000000000000  T2                               
GL000468T        00013-03-201613-03-2016NM1132           0000000000000000000  T2                               
GL000468T        00002-10-201502-10-2015NM1133           0000000000000000000  T2                               
GL000468T        00010-01-201610-01-2016NM1034           0000000000000000000  T2                               
GL000468T        00020-01-201620-01-2016NM1065           0000000000000000000  T2                               
GL000468T        00025-01-201625-01-2016NM1114           0000000000000000000  T2                               
GL000468T        00004-02-201604-02-2016NM1133           0000000000000000000  T2                               
GL000468T        00022-02-201622-02-2016NM1122           0000000000000000000  T2 Jaya Pujara                   
GL000468T        00022-02-201622-02-2016NM1150           0000000000000000000  T2 Jefferson Sathik              
GL000468T        00026-03-201626-03-2016NM1130           0000000000000000000  T2 Rakesh Malvade                
GL000468T        00017-09-201617-09-2016NM1158           0000000000000000000  T2 Rohit Phutane                 
