GL000216T        00001-05-201701-05-2017NM500533         0000000000000000000  T2 Ajay .                        
GL000216T        00015-04-201715-04-2017NM201333         0000000000000000000  T2 Akansha Malia                 
GL000216T        00001-05-201701-05-2017NM500564         0000000000000000000  T2 Kaushal Soni                  
GL000216T        00001-12-201501-12-2015NM500232         0000000000000000000  T2 Ghanshyam Vishwakarma         
GL000216T        00001-05-201701-05-2017NM500334         0000000000000000000  T2 Prince Kumar                  
GL000216T        00001-05-201701-05-2017NM500380         0000000000000000000  T2 Promila .                     
GL000216T        00005-05-201705-05-2017NM500290         0000000000000000000  T2 Shubhankar Kumar Jha          
GL000216T        00001-04-201701-04-2017NM500719         0000000000000000000  T2 Anil Kumar                    
GL000216T        00029-04-201729-04-2017NM500546         0000000000000000000  T2 Priya Jaiswal                 
GL000216T        00015-04-201715-04-2017NM500211         0000000000000000000  T2 Vikash Gubrele                
GL000216T        00001-05-201701-05-2017NM500381         0000000000000000000  T2 Vikas Kumar                   
GL000216T        00001-04-201701-04-2017NM500698         0000000000000000000  T2 Jagtar Singh Nafriaan         
GL000216T        00001-04-201701-04-2017NM201817         0000000000000000000  T2 Atanu Hazra                   
GL000216T        00009-05-201709-05-2017NM500633         0000000000000000000  T2 Deepak Kumar Chaudhari        
GL000216T        00009-05-201709-05-2017NM201653         0000000000000000000  T2 Pranjali Singh                
GL000216T        00004-05-201704-05-2017NM500444         0000000000000000000  T2 Jai Prakash Singh             
GL000216T        00029-04-201729-04-2017NM201077         0000000000000000000  T2 Manish Chandra                
GL000216T        00017-04-201717-04-2017NM500064         0000000000000000000  T2 Namrata Medhi                 
GL000216T        00001-04-201701-04-2017NM500424         0000000000000000000  T2 Neha Vishwakarma              
GL000216T        00001-05-201701-05-2017NM500275         0000000000000000000  T2 Preeti .                      
GL000216T        00001-05-201701-05-2017NM500297         0000000000000000000  T2 Jaideep .                     
GL000216T        00003-05-201703-05-2017NM500737         0000000000000000000  T2 Mahendra Kumar                
GL000216T        00016-04-201716-04-2017NM500743         0000000000000000000  T2 Kavita Rani                   
GL000216T        00001-04-201701-04-2017NM500706         0000000000000000000  T2 Arun Ostwal                   
GL000216T        00001-04-201701-04-2017NM500725         0000000000000000000  T2 Kanta Devi                    
GL000216T        00002-05-201702-05-2017NM201386         0000000000000000000  T2 Sandeep Gupta                 
GL000216T        00020-04-201720-04-2017NM500714         0000000000000000000  T2 Shilpa Rani                   
GL000216T        00001-05-201701-05-2017NM500575         0000000000000000000  T2 Rishu Bhutani                 
GL000216T        00011-04-201711-04-2017NM201522         0000000000000000000  T2 Jyoti Arora                   
GL000216T        00021-04-201721-04-2017NM200699         0000000000000000000  T2 Sundeep Singh                 
GL000216T        00001-05-201701-05-2017NM500264         0000000000000000000  T2 Pooja .                       
GL000216T        00001-05-201701-05-2017NM500379         0000000000000000000  T2 Mandeep .                     
GL000216T        00001-04-201701-04-2017NM500458         0000000000000000000  T2 Hemlata Dhruw                 
GL000216T        00001-05-201701-05-2017NM500507         0000000000000000000  T2 Sourabh Mukati                
GL000216T        00014-03-201714-03-2017NM500721         0000000000000000000  T2 Neetu Rani                    
GL000216T        00002-03-201702-03-2017NM500702         0000000000000000000  T2 Somveer Singh                 
GL000216T        00018-04-201718-04-2017NM201780         0000000000000000000  T2 Vikas Yadav                   
GL000216T        00026-04-201726-04-2017NM201643         0000000000000000000  T2 Mansi Arora                   
GL000216T        00001-05-201701-05-2017NM500399         0000000000000000000  T2 Pinki .                       
GL000216T        00001-04-201701-04-2017NM500694         0000000000000000000  T2 Shubham .                     
GL000216T        00025-04-201725-04-2017NM201750         0000000000000000000  T2 Samarth Singh                 
GL000216T        00029-04-201729-04-2017NM500548         0000000000000000000  T2 Sain Mansuri                  
GL000216T        00001-05-201701-05-2017NM500332         0000000000000000000  T2 Manoj Kumar                   
GL000216T        00018-04-201718-04-2017NM201816         0000000000000000000  T2 Vivek Kumar Pathak            
GL000216T        00001-12-201501-12-2015NM500217         0000000000000000000  T2 Abhinav Anupam                
GL000216T        00001-05-201701-05-2017NM500262         0000000000000000000  T2 Rakesh Kumar                  
GL000216T        00001-05-201701-05-2017NM500284         0000000000000000000  T2 Ekta Jamune                   
GL000216T        00001-04-201701-04-2017NM500697         0000000000000000000  T2 Gurinderjit Singh             
GL000216T        00015-04-201715-04-2017NM100007         0000000000000000000  T2 Tripat Juneja                 
GL000216T        00001-05-201701-05-2017NM6453           0000000000000000000  T2 Ajit Ranjan                   
GL000216T        00013-04-201713-04-2017NM6456           0000000000000000000  T2 Smit Kumar Mitra              
GL000216T        00001-05-201701-05-2017NM6464           0000000000000000000  T2 Sumit Ranjan                  
GL000216T        00001-05-201701-05-2017NM6596           0000000000000000000  T2 Santosh Kumar                 
GL000216T        00001-05-201701-05-2017NM6633           0000000000000000000  T2 Supriya Anand                 
GL000216T        00028-04-201728-04-2017NM6645           0000000000000000000  T2 Sanjit Kumar                  
GL000216T        00001-05-201701-05-2017NM6783           0000000000000000000  T2 Vikas Narayan                 
GL000216T        00013-04-201713-04-2017NM7377           0000000000000000000  T2 Chandan Kumar                 
GL000216T        00016-04-201716-04-2017NM3004591        0000000000000000000  T2 Alok Kumar                    
GL000216T        00002-05-201702-05-2017NM3004990        0000000000000000000  T2 Eqbal Ahmad                   
GL000216T        00015-04-201715-04-2017NM6609           0000000000000000000  T2 Dhiraj Kumar                  
GL000216T        00018-04-201718-04-2017NM7808           0000000000000000000  T2 Simanchal Nayak               
GL000216T        00002-05-201702-05-2017NM3005222        0000000000000000000  T2 Vipin Kumar Bhola             
GL000216T        00013-04-201713-04-2017NM7290           0000000000000000000  T2 Aman Kumar                    
GL000216T        00019-04-201719-04-2017NM7324           0000000000000000000  T2 Nitish Kumar                  
GL000216T        00015-04-201715-04-2017NM3006054        0000000000000000000  T2 Md Zaheer                     
