GL000460A5062934500105-12-201505-12-2015NM129841         0000012213360000000     Anshuman Rahul                MR                            MR MMRIND18-05-1984                                                                      Karnataka           56000100000000000001
GL000460A5062934600112-12-201612-12-2016NM131051         0000013137080000000     Anay Ghotikar                 MR                            MR MMRIND13-03-1985                                                                      Karnataka           56000100000000000001
GL000460A5062934500112-12-201612-12-2016NM130871         0000008173000000000     Nandita Ghosh                 MS                            MS FMRIND03-11-1989                                                                      Karnataka           56000100000000000001
GL000460A5062934600116-12-201616-12-2016NM130701         0000051905514500000     Kiran Lonikar                 MR                            MR MMRIND20-01-1971                                                                      Karnataka           56000100000000000001
GL000460A5062934500116-12-201616-12-2016NM130181         0000023126532000000     Prakash Venkatachalam         MR                            MR MMRIND09-08-1975                                                                      Karnataka           56000100000000000001
GL000460A5062934600116-12-201616-12-2016NM131281         0000017050000000000     Vishnu Prasad Bobba           MR                            MR MMRIND11-04-1985                                                                      Karnataka           56000100000000000001
GL000460A5062934500116-12-201616-12-2016NM131061         0000015964278000000     Dhruva Agarwal                MR                            MR MMRIND20-07-1984                                                                      Karnataka           56000100000000000001
GL000460A5062934600126-12-201626-12-2016NM129241         0000008707798000000     Tilak De                      MR                            MR MMRIND26-04-1989                                                                      Karnataka           56000100000000000001
GL000460A5062934500126-12-201626-12-2016NM131041         0000013200000000000     Tanjot Singh Uppal            MR                            MR MMRIND10-01-1989                                                                      Karnataka           56000100000000000001
GL000460A5062934600130-12-201630-12-2016NM131081         0000010000000000000     Anusha Akula                  MS                            MS FMRIND25-04-1985                                                                      Karnataka           56000100000000000001
GL000460A5062934500130-12-201630-12-2016NM130351         0000018320291000000     Ashish Kumar Pandey           MR                            MR MMRIND08-08-1982                                                                      Karnataka           56000100000000000001
GL000460A5062934600130-12-201630-12-2016NM132011         0000006875000000000     Kalaiarasan V                 MR                            MR MMRIND03-09-1990                                                                      Karnataka           56000100000000000001
GL000460A5062934500130-12-201630-12-2016NM132381         0000005974826000000     Nitin Patil                   MR                            MR MMRIND30-06-1984                                                                      Karnataka           56000100000000000001
GL000460A5062934600130-12-201630-12-2016NM131101         0000016906681000000     Meenakshisundaram Subramanian MR                            MR MMRIND08-03-1985                                                                      Karnataka           56000100000000000001
GL000460A5062934500103-03-201603-03-2016NM133531         0000011550000000000     Pradeep G N                   MR                            MR MMRIND10-10-1986                                                                      Karnataka           56000100000000000001
GL000460A5062934600103-03-201603-03-2016NM131681         0000008800000000000     Murali R                      MR                            MR MMRIND15-04-1989                                                                      Karnataka           56000100000000000001
GL000460A5062934500103-03-201603-03-2016NM134221         0000006875000000000     Arun Porwal                   MR                            MR MMRIND25-06-1988                                                                      Karnataka           56000100000000000001
