GL000468A5062952800115-04-201615-04-2016NM1157           0000010000000000000     Akshata Mulay                 MS                            MS FMRIND18-07-1990                                                                      Mumbai              40000100000000000001
GL000468A5062952800115-04-201615-04-2016NM1160           0000010000000000000     Tavleen Kaur Bindra           MS                            MS FMRIND26-09-1990                                                                      Mumbai              40000100000000000001
GL000468A5062952800115-04-201615-04-2016NM1161           0000010000000000000     Kishor Gosavi                 MR                            MR MMRIND12-12-1988                                                                      Mumbai              40000100000000000001
GL000468A5062952800112-03-201612-03-2016NM1164           0000010000000000000     Vaibhav Ancharwadkar          MR                            MR MMRIND22-05-1978                                                                      Mumbai              40000100000000000001
GL000468A5062952800112-03-201612-03-2016NM1165           0000010000000000000     Sagar Swami                   MR                            MR MMRIND02-09-1989                                                                      Mumbai              40000100000000000001
GL000468A5062952900112-03-201612-03-2016NM1166           0000010000000000000     Shrikant More                 MR                            MR MMRIND07-11-1989                                                                      Mumbai              40000100000000000001
GL000468A5062952900112-03-201612-03-2016NM1167           0000010000000000000     Sanket Lele                   MR                            MR MMRIND24-11-1989                                                                      Mumbai              40000100000000000001
GL000468A5062952900112-03-201612-03-2016NM1170           0000010000000000000     Shashank Pandey               MR                            MR MMRIND01-01-1992                                                                      Mumbai              40000100000000000001
GL000468A5062952900116-09-201616-09-2016NM1172           0000010000000000000     Vagish Tripathi               MR                            MR MMRIND02-08-1992                                                                      Mumbai              40000100000000000001
GL000468A5062952800116-09-201616-09-2016NM1173           0000010000000000000     Monali Dighavkar              MS                            MS FMRIND02-08-1992                                                                      Mumbai              40000100000000000001
GL000468A5062952800116-09-201616-09-2016NM1174           0000010000000000000     Nitish Deshpande              MR                            MR MMRIND30-06-1991                                                                      Mumbai              40000100000000000001
GL000468A5062952800116-09-201616-09-2016NM1175           0000010000000000000     Akshata Mulay                 MS                            MS FMRIND01-01-1993                                                                      Mumbai              40000100000000000001
GL000468A5062952800116-09-201616-09-2016NM1176           0000010000000000000     Tavleen Kaur Bindra           MR                            MR MMRIND02-08-1994                                                                      Mumbai              40000100000000000001
GL000468A5062952800116-09-201616-09-2016NM1177           0000010000000000000     Kishor Gosavi                 MS                            MS FMRIND02-08-1995                                                                      Mumbai              40000100000000000001
GL000468A5062952800116-09-201616-09-2016NM1178           0000010000000000000     Vaibhav Ancharwadkar          MR                            MR MMRIND30-06-1996                                                                      Mumbai              40000100000000000001
GL000468A5062952800116-07-201616-07-2016NM1179           0000010000000000000     Sagar Swami                   MS                            MS FMRIND01-01-1997                                                                      Mumbai              40000100000000000001
GL000468A5062952900116-07-201616-07-2016NM1180           0000010000000000000     Shrikant More                 MR                            MR MMRIND02-08-1998                                                                      Mumbai              40000100000000000001
GL000468A5062952900116-07-201616-07-2016NM1181           0000010000000000000     Sanket Lele                   MS                            MS FMRIND02-08-1999                                                                      Mumbai              40000100000000000001
GL000468A5062952900116-07-201616-07-2016NM1182           0000010000000000000     Shashank Pandey               MR                            MR MMRIND30-06-1978                                                                      Mumbai              40000100000000000001
GL000468A5062952900116-07-201616-07-2016NM1183           0000010000000000000     Vagish Tripathi               MS                            MS FMRIND01-01-1979                                                                      Mumbai              40000100000000000001
GL000468A5062952800116-07-201616-07-2016NM1184           0000010000000000000     Monali Dighavkar              MR                            MR MMRIND02-08-1976                                                                      Mumbai              40000100000000000001
GL000468A5062952800121-05-201621-05-2016NM1185           0000010000000000000     Nitish Deshpande              MS                            MS FMRIND02-08-1975                                                                      Mumbai              40000100000000000001
GL000468A5062952800121-05-201621-05-2016NM1186           0000010000000000000     Akshata Mulay                 MR                            MR MMRIND22-06-1994                                                                      Mumbai              40000100000000000001
GL000468A5062952800121-05-201621-05-2016NM1187           0000010000000000000     Tavleen Kaur Bindra           MS                            MS FMRIND24-12-1991                                                                      Mumbai              40000100000000000001
GL000468A5062952800121-05-201621-05-2016NM1188           0000010000000000000     Kishor Gosavi                 MR                            MR MMRIND25-07-1992                                                                      Mumbai              40000100000000000001
GL000468A5062952800121-05-201621-05-2016NM1189           0000010000000000000     Vaibhav Ancharwadkar          MS                            MS FMRIND25-07-1992                                                                      Mumbai              40000100000000000001
GL000468A5062952800121-05-201621-05-2016NM1190           0000010000000000000     Sagar Swami                   MR                            MR MMRIND22-06-1991                                                                      Mumbai              40000100000000000001
GL000468A5062952900121-05-201621-05-2016NM1191           0000010000000000000     Shrikant More                 MS                            MS FMRIND24-12-1991                                                                      Mumbai              40000100000000000001
GL000468A5062952900121-05-201621-05-2016NM1192           0000010000000000000     Sanket Lele                   MR                            MR MMRIND25-07-1992                                                                      Mumbai              40000100000000000001
GL000468A5062952900121-05-201621-05-2016NM1193           0000010000000000000     Shashank Pandey               MS                            MS FMRIND25-07-1992                                                                      Mumbai              40000100000000000001
GL000468A5062952900121-05-201621-05-2016NM1194           0000010000000000000     Vagish Tripathi               MR                            MR MMRIND22-06-1991                                                                      Mumbai              40000100000000000001
GL000468A5062952800121-05-201621-05-2016NM1195           0000010000000000000     Monali Dighavkar              MS                            MS FMRIND24-12-1991                                                                      Mumbai              40000100000000000001
GL000468A5062952800121-05-201621-05-2016NM1196           0000010000000000000     Nitish Deshpande              MR                            MR MMRIND25-07-1992                                                                      Mumbai              40000100000000000001
GL000468A5062952800121-05-201621-05-2016NM1197           0000010000000000000     Akshata Mulay                 MS                            MS FMRIND25-07-1992                                                                      Mumbai              40000100000000000001
GL000468A5062952800116-01-201616-01-2016NM1198           0000010000000000000     Tavleen Kaur Bindra           MR                            MR MMRIND22-06-1991                                                                      Mumbai              40000100000000000001
GL000468A5062952800116-01-201616-01-2016NM1199           0000010000000000000     Kishor Gosavi                 MS                            MS FMRIND24-12-1991                                                                      Mumbai              40000100000000000001
GL000468A5062952800116-01-201616-01-2016NM1200           0000010000000000000     Vaibhav Ancharwadkar          MR                            MR MMRIND25-07-1992                                                                      Mumbai              40000100000000000001
GL000468A5062952800116-01-201616-01-2016NM1201           0000010000000000000     Sagar Swami                   MS                            MS FMRIND25-07-1992                                                                      Mumbai              40000100000000000001
GL000468A5062952800101-12-201401-12-2014NM1149           0000010000000000000     Amruta Mohite                 MS                            MS FMRIND19-08-1989                                                                      Mumbai              40000100000000000001
GL000468A5062952800101-12-201401-12-2014NM1150           0000010000000000000     Jefferson Sathik              MR                            MR MMRIND19-07-1976                                                                      Mumbai              40000100000000000001
GL000468A5062952800101-12-201401-12-2014NM1151           0000010000000000000     Alok Biswas                   MR                            MR MMRIND22-06-1964                                                                      Mumbai              40000100000000000001
