GL000469A5062953000105-12-201505-12-2015NM012984         0000012213360000000     Anshuman Rahul                MR                            MR MMRIND18-05-1984                                                                      Banaglore           56000100000000000001
GL000469A5062953000112-12-201612-12-2016NM013105         0000013137080000000     Anay Ghotikar                 MR                            MR MMRIND13-03-1985                                                                      Banaglore           56000100000000000001
GL000469A5062953000112-12-201612-12-2016NM013087         0000008173000000000     Nandita Ghosh                 MS                            MS FMRIND03-11-1989                                                                      Banaglore           56000100000000000001
GL000469A5062953000116-12-201616-12-2016NM013070         0000051905514500000     Kiran Lonikar                 MR                            MR MMRIND20-01-1971                                                                      Banaglore           56000100000000000001
GL000469A5062953000116-12-201616-12-2016NM013018         0000023126532000000     Prakash Venkatachalam         MR                            MR MMRIND09-08-1975                                                                      Banaglore           56000100000000000001
GL000469A5062953000116-12-201616-12-2016NM013128         0000017050000000000     Vishnu Prasad Bobba           MR                            MR MMRIND11-04-1985                                                                      Banaglore           56000100000000000001
GL000469A5062953000116-12-201616-12-2016NM013106         0000015964278000000     Dhruva Agarwal                MR                            MR MMRIND20-07-1984                                                                      Banaglore           56000100000000000001
GL000469A5062953000126-12-201626-12-2016NM012924         0000008707798000000     Tilak De                      MR                            MR MMRIND26-04-1989                                                                      Banaglore           56000100000000000001
GL000469A5062953000126-12-201626-12-2016NM013104         0000013200000000000     Tanjot Singh Uppal            MR                            MR MMRIND10-01-1989                                                                      Banaglore           56000100000000000001
GL000469A5062953000130-12-201630-12-2016NM013108         0000010000000000000     Anusha Akula                  MS                            MS FMRIND25-04-1985                                                                      Banaglore           56000100000000000001
GL000469A5062953000130-12-201630-12-2016NM013035         0000018320291000000     Ashish Kumar Pandey           MR                            MR MMRIND08-08-1982                                                                      Banaglore           56000100000000000001
GL000469A5062953000130-12-201630-12-2016NM013201         0000006875000000000     Kalaiarasan V                 MR                            MR MMRIND03-09-1990                                                                      Banaglore           56000100000000000001
GL000469A5062953000130-12-201630-12-2016NM013238         0000005974826000000     Nitin Patil                   MR                            MR MMRIND30-06-1984                                                                      Banaglore           56000100000000000001
GL000469A5062953000130-12-201630-12-2016NM013110         0000016906681000000     Meenakshisundaram Subramanian MR                            MR MMRIND08-03-1985                                                                      Banaglore           56000100000000000001
GL000469A5062953000103-03-201603-03-2016NM013353         0000011550000000000     Pradeep G N                   MR                            MR MMRIND10-10-1986                                                                      Banaglore           56000100000000000001
GL000469A5062953000103-03-201603-03-2016NM013168         0000008800000000000     Murali R                      MR                            MR MMRIND15-04-1989                                                                      Banaglore           56000100000000000001
GL000469A5062953000103-03-201603-03-2016NM013422         0000006875000000000     Arun Porwal                   MR                            MR MMRIND25-06-1988                                                                      Banaglore           56000100000000000001
GL000469A5062953000113-03-201613-03-2016NM013352         0000006069074000000     Praveen Kumar                 MR                            MR MMRIND25-01-1984                                                                      Banaglore           56000100000000000001
GL000469A5062953000120-03-201620-03-2016NM013435         0000020128090000000     Tom Devasia                   MR                            MR MMRIND21-12-1983                                                                      Banaglore           56000100000000000001
GL000469A5062953000124-03-201624-03-2016NM013425         0000004410000000000     Magesh Rao                    MR                            MR MMRIND18-03-1981                                                                      Banaglore           56000100000000000001
GL000469A5062953000124-03-201624-03-2016NM013354         0000018791487000000     Nagarajan Radhakrishnan       MR                            MR MMRIND29-11-1978                                                                      Banaglore           56000100000000000001
GL000469A5062953000124-03-201624-03-2016NM013520         0000012100000000000     Ram Kishore K S               MR                            MR MMRIND13-06-1983                                                                      Banaglore           56000100000000000001
GL000469A5062953000117-03-201617-03-2016NM013434         0000060000000000000     George Prabhu                 MR                            MR MMRIND30-11-1971                                                                      Banaglore           56000100000000000001
GL000469A5062953000127-03-201627-03-2016NM013424         0000013137080000000     Ravi Arora                    MR                            MR MMRIND15-11-1988                                                                      Banaglore           56000100000000000001
GL000469A5062953000127-03-201627-03-2016NM013200         0000008896272000000     Hrishikesh Joshi              MR                            MR MMRIND20-06-1986                                                                      Banaglore           56000100000000000001
GL000469A5062953000127-03-201627-03-2016NM013498         0000015021875000000     Narasimha Kumar               MR                            MR MMRIND16-08-1976                                                                      Banaglore           56000100000000000001
GL000469A5062953000112-03-201612-03-2016NM013335         0000010000000000000     Yashaswini V                  MS                            MS FMRIND25-10-1985                                                                      Banaglore           56000100000000000001
GL000469A5062953000116-09-201516-09-2015NM012453         0000006973770000000     Prakash  Jain                 MR                            MR MMRIND14-09-1987                                                                      Banaglore           56000100000000000001
GL000469A5062953000112-09-201612-09-2016NM012751         0000018796630000000     Neha  Verma                   MS                            MS FMRIND31-12-1986                                                                      Banaglore           56000100000000000001
GL000469A5062953000102-09-201602-09-2016NM012754         0000012114150000000     Manish  Prasad                MR                            MR MMRIND08-11-1984                                                                      Banaglore           56000100000000000001
GL000469A5062953000102-09-201602-09-2016NM012755         0000010940000000000     Hari Krishna  M               MR                            MR MMRIND25-09-1988                                                                      Banaglore           56000100000000000001
GL000469A5062953000123-09-201623-09-2016NM012756         0000007330630000000     Rama  Vundela                 MS                            MS FMRIND08-07-1989                                                                      Banaglore           56000100000000000001
GL000469A5062953000102-09-201602-09-2016NM012762         0000007500000000000     Sandhya  Pal                  MS                            MS FMRIND11-07-1989                                                                      Banaglore           56000100000000000001
GL000469A5062953000123-09-201623-09-2016NM012763         0000007500000000000     Rahul Rishi Sharma            MR                            MR MMRIND26-08-1988                                                                      Banaglore           56000100000000000001
GL000469A5062953000112-09-201612-09-2016NM012773         0000008250000000000     Ayan  Paul                    MR                            MR MMRIND25-08-1988                                                                      Banaglore           56000100000000000001
GL000469A5062953000116-09-201616-09-2016NM012774         0000007500000000000     Omkar  Banawalikar            MR                            MR MMRIND01-05-1987                                                                      Banaglore           56000100000000000001
GL000469A5062953000102-09-201602-09-2016NM012799         0000013656250000000     Debapriya  Dillip             MR                            MR MMRIND15-04-1984                                                                      Banaglore           56000100000000000001
GL000469A5062953000105-09-201605-09-2016NM012804         0000009800980000000     Alok Kumar  Prusty            MR                            MR MMRIND28-04-1989                                                                      Banaglore           56000100000000000001
GL000469A5062953000125-09-201625-09-2016NM012833         0000026000000000000     Maduri Hanumath  Rao          MR                            MR MMRIND29-11-1981                                                                      Banaglore           56000100000000000001
GL000469A5062953000102-09-201602-09-2016NM012834         0000010200000000000     Arka  Dutta                   MR                            MR MMRIND07-06-1987                                                                      Banaglore           56000100000000000001
GL000469A5062953000102-09-201602-09-2016NM012841         0000004862540000000     Divyashree  Vasudeva          MS                            MS FMRIND13-08-1991                                                                      Banaglore           56000100000000000001
GL000469A5062953000111-09-201611-09-2016NM012842         0000012000000000000     Lavanya  N J                  MS                            MS FMRIND08-01-1977                                                                      Banaglore           56000100000000000001
GL000469A5062953000130-09-201630-09-2016NM012843         0000006374060000000     Debanjan  Chatterjee          MR                            MR MMRIND21-10-1989                                                                      Banaglore           56000100000000000001
GL000469A5062953000123-09-201623-09-2016NM012844         0000013500000000000     Vijay  C                      MR                            MR MMRIND25-08-1985                                                                      Banaglore           56000100000000000001
GL000469A5062953000130-09-201630-09-2016NM012845         0000022953740000000     Rajagopal  Guduru             MR                            MR MMRIND30-11-1981                                                                      Banaglore           56000100000000000001
GL000469A5062953000102-09-201602-09-2016NM012847         0000026239890000000     Aby Aby Philip                MR                            MR MMRIND13-11-1975                                                                      Banaglore           56000100000000000001
GL000469A5062953000102-09-201602-09-2016NM012848         0000005520000000000     Naresh  Kumar Gunji           MR                            MR MMRIND18-08-1990                                                                      Banaglore           56000100000000000001
GL000469A5062953000130-09-201630-09-2016NM012872         0000012799530000000     Sivaji  Gullapally            MR                            MR MMRIND14-02-1983                                                                      Banaglore           56000100000000000001
GL000469A5062953000119-09-201619-09-2016NM012896         0000002050000000000     Akshay  Mallya                MR                            MR MMRIND19-07-1991                                                                      Banaglore           56000100000000000001
GL000469A5062953000126-09-201626-09-2016NM012919         0000004862540000000     Suraj Yakub Mujawar           MR                            MR MMRIND24-09-1990                                                                      Banaglore           56000100000000000001
GL000469A5062953000130-09-201630-09-2016NM012926         0000031990650000000     Shashidhara  Belavadi NagarajsMR                            MR MMRIND02-01-1974                                                                      Banaglore           56000100000000000001
