GL000460A5062934500105-04-201605-04-2016NM22222          0000012213360000000     11AA                          MR                            MR MMRIND18-05-1984                                                                      Karnataka           56000100000000000001
GL000460A5062934600104-04-201604-04-2016NM22223          0000013137080000000     22BB                          MR                            MR MMRIND13-03-1985                                                                      Karnataka           56000100000000000001
GL000460A5062934500104-04-201604-04-2016NM22224          0000008173000000000     33JJ                          MS                            MS FMRIND03-11-1989                                                                      Karnataka           56000100000000000001
GL000460A5062934600116-04-201616-04-2016NM22225          0000051905514500000     44II                          MR                            MR MMRIND20-01-1971                                                                      Karnataka           56000100000000000001
GL000460A5062934500116-04-201616-04-2016NM22226          0000023126532000000     55GG                          MR                            MR MMRIND09-08-1975                                                                      Karnataka           56000100000000000001
GL000460A5062934600116-05-201616-05-2016NM22227          0000017050000000000     666TT                         MR                            MR MMRIND11-04-1985                                                                      Karnataka           56000100000000000001
GL000460A5062934500116-05-201616-05-2016NM22228          0000015964278000000     77SS                          MR                            MR MMRIND20-07-1984                                                                      Karnataka           56000100000000000001
GL000460A5062934600126-05-201626-05-2016NM22229          0000008707798000000     88DD                          MR                            MR MMRIND26-04-1989                                                                      Karnataka           56000100000000000001
GL000460A5062934500126-05-201626-05-2016NM22230          0000013200000000000     99FF                          MR                            MR MMRIND10-01-1989                                                                      Karnataka           56000100000000000001
GL000460A5062934600130-05-201630-05-2016NM22231          0000010000000000000     44KK                          MS                            MS FMRIND25-04-1985                                                                      Karnataka           56000100000000000001
GL000460A5062934500130-09-201630-09-2016NM22232          0000018320291000000     77SS                          MR                            MR MMRIND08-08-1982                                                                      Karnataka           56000100000000000001
GL000460A5062934600130-09-201630-09-2016NM22233          0000006875000000000     66GGH                         MR                            MR MMRIND03-09-1990                                                                      Karnataka           56000100000000000001
GL000460A5062934500130-09-201630-09-2016NM22234          0000005974826000000     00DFFD                        MR                            MR MMRIND30-06-1984                                                                      Karnataka           56000100000000000001
GL000460A5062934600130-09-201630-09-2016NM22235          0000016906681000000     33UU                          MR                            MR MMRIND08-03-1985                                                                      Karnataka           56000100000000000001
GL000460A5062934500103-03-201603-03-2016NM22236          0000011550000000000     22KK                          MR                            MR MMRIND10-10-1986                                                                      Karnataka           56000100000000000001
GL000460A5062934600103-03-201603-03-2016NM22237          0000008800000000000     55LL                          MR                            MR MMRIND15-04-1989                                                                      Karnataka           56000100000000000001
GL000460A5062934500103-03-201603-03-2016NM22238          0000006875000000000     223344PP                      MR                            MR MMRIND25-06-1988                                                                      Karnataka           56000100000000000001
