GL000460A5062934500105-04-201605-04-2016NM11111          0000012213360000000     Anshuman Rahul 1              MR                            MR MMRIND18-05-1984                                                                      Karnataka           56000100000000000001
GL000460A5062934600104-04-201604-04-2016NM11112          0000013137080000000     Anay Ghotikar 2               MR                            MR MMRIND13-03-1985                                                                      Karnataka           56000100000000000001
GL000460A5062934500104-04-201604-04-2016NM11113          0000008173000000000     Nandita Ghosh 3               MS                            MS FMRIND03-11-1989                                                                      Karnataka           56000100000000000001
GL000460A5062934600116-04-201616-04-2016NM11114          0000051905514500000     Kiran Lonikar 4               MR                            MR MMRIND20-01-1971                                                                      Karnataka           56000100000000000001
GL000460A5062934500116-04-201616-04-2016NM11115          0000023126532000000     Prakash Venkatachalam 5       MR                            MR MMRIND09-08-1975                                                                      Karnataka           56000100000000000001
GL000460A5062934600116-05-201616-05-2016NM11116          0000017050000000000     Vishnu Prasad Bobba 6         MR                            MR MMRIND11-04-1985                                                                      Karnataka           56000100000000000001
GL000460A5062934500116-05-201616-05-2016NM11117          0000015964278000000     Dhruva Agarwal 7              MR                            MR MMRIND20-07-1984                                                                      Karnataka           56000100000000000001
GL000460A5062934600126-05-201626-05-2016NM11118          0000008707798000000     Tilak De 8                    MR                            MR MMRIND26-04-1989                                                                      Karnataka           56000100000000000001
GL000460A5062934500126-05-201626-05-2016NM11119          0000013200000000000     Tanjot Singh Uppal 9          MR                            MR MMRIND10-01-1989                                                                      Karnataka           56000100000000000001
GL000460A5062934600130-05-201630-05-2016NM11120          0000010000000000000     Anusha Akula 10               MS                            MS FMRIND25-04-1985                                                                      Karnataka           56000100000000000001
GL000460A5062934500130-09-201630-09-2016NM11121          0000018320291000000     Ashish Kumar Pandey 11        MR                            MR MMRIND08-08-1982                                                                      Karnataka           56000100000000000001
GL000460A5062934600130-09-201630-09-2016NM11122          0000006875000000000     Kalaiarasan V 12              MR                            MR MMRIND03-09-1990                                                                      Karnataka           56000100000000000001
GL000460A5062934500130-09-201630-09-2016NM11123          0000005974826000000     Nitin Patil 13                MR                            MR MMRIND30-06-1984                                                                      Karnataka           56000100000000000001
GL000460A5062934600130-09-201630-09-2016NM11124          0000016906681000000     Meenakshisundaram Subramanian MR                            MR MMRIND08-03-1985                                                                      Karnataka           56000100000000000001
GL000460A5062934500103-03-201603-03-2016NM11125          0000011550000000000     Pradeep G N 15                MR                            MR MMRIND10-10-1986                                                                      Karnataka           56000100000000000001
GL000460A5062934600103-03-201603-03-2016NM11126          0000008800000000000     Murali R 16                   MR                            MR MMRIND15-04-1989                                                                      Karnataka           56000100000000000001
GL000460A5062934500103-03-201603-03-2016NM11127          0000006875000000000     Arun Porwal 17                MR                            MR MMRIND25-06-1988                                                                      Karnataka           56000100000000000001
